{
  "_format": "hh-sol-artifact-1",
  "contractName": "Storage",
  "sourceName": "contracts/Storage.sol",
  "abi": [
    {
      "inputs": [
        {
          "internalType": "string",
          "name": "_name",
          "type": "string"
        },
        {
          "internalType": "uint256",
          "name": "_number",
          "type": "uint256"
        }
      ],
      "name": "addUser",
      "outputs": [],
      "stateMutability": "nonpayable",
      "type": "function"
    },
    {
      "inputs": [],
      "name": "creator",
      "outputs": [
        {
          "internalType": "string",
          "name": "name",
          "type": "string"
        },
        {
          "internalType": "uint256",
          "name": "number",
          "type": "uint256"
        }
      ],
      "stateMutability": "view",
      "type": "function"
    },
    {
      "inputs": [],
      "name": "getCreator",
      "outputs": [
        {
          "internalType": "string",
          "name": "",
          "type": "string"
        }
      ],
      "stateMutability": "view",
      "type": "function"
    },
    {
      "inputs": [
        {
          "internalType": "string",
          "name": "_name",
          "type": "string"
        }
      ],
      "name": "getUser",
      "outputs": [
        {
          "internalType": "string",
          "name": "",
          "type": "string"
        },
        {
          "internalType": "uint256",
          "name": "",
          "type": "uint256"
        }
      ],
      "stateMutability": "view",
      "type": "function"
    },
    {
      "inputs": [],
      "name": "retrieve",
      "outputs": [
        {
          "internalType": "uint256",
          "name": "",
          "type": "uint256"
        }
      ],
      "stateMutability": "view",
      "type": "function"
    },
    {
      "inputs": [
        {
          "internalType": "uint256",
          "name": "num",
          "type": "uint256"
        }
      ],
      "name": "store",
      "outputs": [],
      "stateMutability": "nonpayable",
      "type": "function"
    },
    {
      "inputs": [
        {
          "internalType": "string",
          "name": "",
          "type": "string"
        }
      ],
      "name": "userMap",
      "outputs": [
        {
          "internalType": "string",
          "name": "name",
          "type": "string"
        },
        {
          "internalType": "uint256",
          "name": "number",
          "type": "uint256"
        }
      ],
      "stateMutability": "view",
      "type": "function"
    },
    {
      "inputs": [
        {
          "internalType": "uint256",
          "name": "",
          "type": "uint256"
        }
      ],
      "name": "users",
      "outputs": [
        {
          "internalType": "string",
          "name": "name",
          "type": "string"
        },
        {
          "internalType": "uint256",
          "name": "number",
          "type": "uint256"
        }
      ],
      "stateMutability": "view",
      "type": "function"
    }
  ],
  "bytecode": "0x608060405260405180604001604052806040518060400160405280600b81526020017f7468616e7473696e746f65000000000000000000000000000000000000000000815250815260200160648152506001600082015181600001908051906020019061006d92919061008c565b5060208201518160010155505034801561008657600080fd5b50610190565b8280546100989061012f565b90600052602060002090601f0160209004810192826100ba5760008555610101565b82601f106100d357805160ff1916838001178555610101565b82800160010185558215610101579182015b828111156101005782518255916020019190600101906100e5565b5b50905061010e9190610112565b5090565b5b8082111561012b576000816000905550600101610113565b5090565b6000600282049050600182168061014757607f821691505b6020821081141561015b5761015a610161565b5b50919050565b7f4e487b7100000000000000000000000000000000000000000000000000000000600052602260045260246000fd5b610b028061019f6000396000f3fe608060405234801561001057600080fd5b50600436106100885760003560e01c806331feb6711161005b57806331feb67114610104578063365b98b2146101355780636057361d14610166578063eb15f3801461018257610088565b806302d05d3f1461008d5780630ee2cb10146100ac5780631c5220c2146100ca5780632e64cec1146100e6575b600080fd5b6100956101b3565b6040516100a39291906108bb565b60405180910390f35b6100b461024d565b6040516100c19190610899565b60405180910390f35b6100e460048036038101906100df9190610780565b6102e2565b005b6100ee61039e565b6040516100fb91906108eb565b60405180910390f35b61011e60048036038101906101199190610737565b6103a7565b60405161012c9291906108bb565b60405180910390f35b61014f600480360381019061014a91906107dc565b610487565b60405161015d9291906108bb565b60405180910390f35b610180600480360381019061017b91906107dc565b610543565b005b61019c60048036038101906101979190610737565b61054d565b6040516101aa9291906108bb565b60405180910390f35b60018060000180546101c4906109cf565b80601f01602080910402602001604051908101604052809291908181526020018280546101f0906109cf565b801561023d5780601f106102125761010080835404028352916020019161023d565b820191906000526020600020905b81548152906001019060200180831161022057829003601f168201915b5050505050908060010154905082565b60606001600001805461025f906109cf565b80601f016020809104026020016040519081016040528092919081815260200182805461028b906109cf565b80156102d85780601f106102ad576101008083540402835291602001916102d8565b820191906000526020600020905b8154815290600101906020018083116102bb57829003601f168201915b5050505050905090565b600060405180604001604052808481526020018381525090506003819080600181540180825580915050600190039060005260206000209060020201600090919091909150600082015181600001908051906020019061034392919061060f565b50602082015181600101555050806004846040516103619190610882565b9081526020016040518091039020600082015181600001908051906020019061038b92919061060f565b5060208201518160010155905050505050565b60008054905090565b60606000806004846040516103bc9190610882565b90815260200160405180910390206040518060400160405290816000820180546103e5906109cf565b80601f0160208091040260200160405190810160405280929190818152602001828054610411906109cf565b801561045e5780601f106104335761010080835404028352916020019161045e565b820191906000526020600020905b81548152906001019060200180831161044157829003601f168201915b505050505081526020016001820154815250509050806000015181602001519250925050915091565b6003818154811061049757600080fd5b90600052602060002090600202016000915090508060000180546104ba906109cf565b80601f01602080910402602001604051908101604052809291908181526020018280546104e6906109cf565b80156105335780601f1061050857610100808354040283529160200191610533565b820191906000526020600020905b81548152906001019060200180831161051657829003601f168201915b5050505050908060010154905082565b8060008190555050565b600481805160208101820180518482526020830160208501208183528095505050505050600091509050806000018054610586906109cf565b80601f01602080910402602001604051908101604052809291908181526020018280546105b2906109cf565b80156105ff5780601f106105d4576101008083540402835291602001916105ff565b820191906000526020600020905b8154815290600101906020018083116105e257829003601f168201915b5050505050908060010154905082565b82805461061b906109cf565b90600052602060002090601f01602090048101928261063d5760008555610684565b82601f1061065657805160ff1916838001178555610684565b82800160010185558215610684579182015b82811115610683578251825591602001919060010190610668565b5b5090506106919190610695565b5090565b5b808211156106ae576000816000905550600101610696565b5090565b60006106c56106c08461092b565b610906565b9050828152602081018484840111156106e1576106e0610a95565b5b6106ec84828561098d565b509392505050565b600082601f83011261070957610708610a90565b5b81356107198482602086016106b2565b91505092915050565b60008135905061073181610ab5565b92915050565b60006020828403121561074d5761074c610a9f565b5b600082013567ffffffffffffffff81111561076b5761076a610a9a565b5b610777848285016106f4565b91505092915050565b6000806040838503121561079757610796610a9f565b5b600083013567ffffffffffffffff8111156107b5576107b4610a9a565b5b6107c1858286016106f4565b92505060206107d285828601610722565b9150509250929050565b6000602082840312156107f2576107f1610a9f565b5b600061080084828501610722565b91505092915050565b60006108148261095c565b61081e8185610967565b935061082e81856020860161099c565b61083781610aa4565b840191505092915050565b600061084d8261095c565b6108578185610978565b935061086781856020860161099c565b80840191505092915050565b61087c81610983565b82525050565b600061088e8284610842565b915081905092915050565b600060208201905081810360008301526108b38184610809565b905092915050565b600060408201905081810360008301526108d58185610809565b90506108e46020830184610873565b9392505050565b60006020820190506109006000830184610873565b92915050565b6000610910610921565b905061091c8282610a01565b919050565b6000604051905090565b600067ffffffffffffffff82111561094657610945610a61565b5b61094f82610aa4565b9050602081019050919050565b600081519050919050565b600082825260208201905092915050565b600081905092915050565b6000819050919050565b82818337600083830152505050565b60005b838110156109ba57808201518184015260208101905061099f565b838111156109c9576000848401525b50505050565b600060028204905060018216806109e757607f821691505b602082108114156109fb576109fa610a32565b5b50919050565b610a0a82610aa4565b810181811067ffffffffffffffff82111715610a2957610a28610a61565b5b80604052505050565b7f4e487b7100000000000000000000000000000000000000000000000000000000600052602260045260246000fd5b7f4e487b7100000000000000000000000000000000000000000000000000000000600052604160045260246000fd5b600080fd5b600080fd5b600080fd5b600080fd5b6000601f19601f8301169050919050565b610abe81610983565b8114610ac957600080fd5b5056fea26469706673582212202fd3333bcfdd9fdf699ce613572cb868992f5a7d4bcdc711930c0b44b1f1b8c664736f6c63430008070033",
  "linkReferences": {},
  "deployedLinkReferences": {}
}